:100000000C9434000C94DA030C94DA030C94DA03A5
:100010000C94DA030C94DA030C94DA030C94DA03EC
:100020000C94DA030C94DA030C94DA030C94DA03DC
:100030000C94DA030C94DA030C94DA030C94DA03CC
:100040000C94DA030C94DA030C94DA030C94DA03BC
:100050000C94DA030C94DA030C94DA030C94DA03AC
:100060000C94DA030C94DA0311241FBECFEFD0E016
:10007000DEBFCDBF11E0A0E0B1E0E8EBF7E002C0E9
:1000800005900D92A032B107D9F711E0A0E2B1E0DE
:1000900001C01D92A136B107E1F70E9451000895F9
:1000A00008950E94A7030E94B9030E945C030E9466
:1000B000A9030895CF93DF93E0915F01F091600170
:1000C0008191F0936001E0935F01882309F58EC070
:1000D000803369F4E0915C01F0915D011192F0933D
:1000E0005D01E0935C01E0915F01F091600180911E
:1000F0003301909134010196909334018093330140
:100100008191F0936001E0935F01882309F46EC050
:10011000813309F458C08233DCF28233E1F1843355
:1001200031F7E0913301F0913401E0FF07C0CF01D6
:1001300001969093340180933301FC012081318139
:10014000428153813196F0933401E0933301609101
:100150005C0170915D01FB012193BB27A52F942FBA
:10016000832FEB018983BF016F5F7F4FCA01AA27ED
:10017000BB278183252F332744275527FB01218364
:100180006E5F7F4F70935D0160935C01E0915F0152
:10019000F0916001ACCFE0913301F09134018081A6
:1001A0009181A0915C01B0915D01FD018193119657
:1001B0009C933196F0935D01E0935C01E0915F01C7
:1001C000F091600194CFE0913301F091340180818E
:1001D000E0915C01F0915D018193F0935D01E0930A
:1001E0005C01E0915F01F091600181CFDF91CF91DF
:1001F0000895AF92BF92CF92DF92EF92FF920F934A
:100200001F93CF93DF93E0915F01F09160018191A3
:10021000F0936001E0935F01882309F4BCC0C091B2
:100220003301D091340121C0803391F41882809140
:100230005C0190915D01019690935D0180935C015A
:10024000E0915F01F0916001C0913301D0913401E0
:100250002196D0933401C09333018191F0936001D2
:10026000E0935F01882309F496C0813309F480C0CC
:100270008233D4F2823309F45CC0843349F7C0FF7F
:1002800007C0CE0101969093340180933301EC01B5
:10029000A0915C01B0915D01FD01E190FF2400E0BF
:1002A00010E0F0935D01E0935C0111962C9130E039
:1002B00040E050E0542F432F322F22276F01089443
:1002C000C11CD11CD0925D01C0925C01818190E083
:1002D000A0E0B0E0DC0199278827B6016F5F7F4F6F
:1002E00070935D0160935C012E293F29402B512BB7
:1002F000282B392B4A2B5B2BF601818190E0A0E063
:10030000B0E0B82FAA2799278827282B392B4A2B0A
:100310005B2B6F5F7F4F70935D0160935C0128835F
:1003200039834A835B83E0915F01F09160012196FC
:100330008FCFE0915C01F0915D01DF018D9190E044
:10034000B0935D01A0935C01B180AA248A299B2906
:100350001196B0935D01A0935C0199838883E0912D
:100360005F01F0916001C0913301D091340170CFF1
:10037000E0915C01F0915D0181918883F0935D01D2
:10038000E0935C01E0915F01F0916001C091330165
:10039000D09134015DCFDF91CF911F910F91FF90EC
:1003A000EF90DF90CF90BF90AF90089508951F9386
:1003B000182F0E94CF03682F80912E0190912F015A
:1003C000892B31F12091250130912601409127019F
:1003D0005091280181E090E002C0880F991F1A9582
:1003E000E2F7AA2797FDA095BA2F282B392B4A2B85
:1003F0005B2B2093250130932601409327015093D6
:10040000280110E0862F0E94D303812F1F910895A9
:10041000209125013091260140912701509128011A
:100420002115310541055105A9F611E0EBCF80E416
:1004300091E090932A0180932901809141018F5F7F
:100440008093320110925E010E94D2030895982F8A
:1004500080912001882309F408951092400190931F
:1004600042016C5F6093410180E00E94D7018823C4
:1004700099F30E941702089584E060E00E94270229
:10048000089582E060E00E94270208958091430170
:100490008B3F41F41092210110922201109223010E
:1004A0001092240184E060E00E9427020895809168
:1004B00043018A3F11F18B3F48F08C3F89F18D3F1A
:1004C00089F060E082E00E9427020895893FC9F721
:1004D0001092450189E08093460162E082E00E942B
:1004E000270208958DE090E09093460180934501A6
:1004F00062E082E00E9427020895E0E0F1E0A5E4D6
:10050000B1E081918D9381E0E331F807D1F78091DB
:100510001B018093580164E182E00E942702089544
:10052000E3E1F1E0A5E4B1E081918D9381E0EB316D
:10053000F807D1F768E082E00E94270208951F9330
:100540000E94CF03182F8091250190912601A09140
:100550002701B09128010097A105B10569F080FF3E
:100560000BC08E7F8093250190932601A0932701D5
:10057000B09328010E941702812F0E94D3031F917C
:10058000089586E391E090932A0180932901809158
:1005900037018F5F8093320110925E010E94D20377
:1005A0000895982F80912001823009F0089570936A
:1005B0005B0160935A011092360189E08093380103
:1005C00084E080933701909339010E94C10208951D
:1005D000BC0180E00E94D102089580912001833007
:1005E00009F0089582E0809320011092360187E09F
:1005F0008093380184E080933701109239010E9482
:10060000C10208951092360185E08093380184E09C
:1006100080933701109239010E94C1020895982FEA
:1006200080912001823060F0109236018EE080933C
:10063000380184E080933701909339010E94C10210
:100640000895982F80912001833061F01092360137
:100650008CE08093380184E08093370190933901D6
:100660000E94C10208950E94D10310922F0110929E
:100670002E0110922C0110922B0110923001109239
:100680002D011092320110925E01109259011092C8
:10069000310110922001109221011092220110923A
:1006A000230110922401109225011092260110922C
:1006B00027011092280108950E94330381E080935E
:1006C000200108950E945C030895809120018823F1
:1006D00051F080914201863091F0873028F08730C8
:1006E000E1F08A3091F008958130E9F08330D9F754
:1006F0008091430187FD1EC00E943C02089583E063
:10070000809320010E944F000895E0915A01F091DA
:100710005B01309741F30995089582E080932001B1
:100720000E94500008958091430187FD06C00E94F9
:10073000410208950E94460208950E9457020895BA
:100740000895089508950895089508950895259A9F
:100750000895DF93CF9300D0CDB7DEB71A82198208
:1007600089819A81892BE1F30F900F90CF91DF91CE
:1007700008952D9A08952D98089585B190E0969545
:100780008795929582958F7089279F7089278170B0
:10079000089585B190E2892785B90895089580E08C
:1007A0000895089508950895089508950895089561
:0807B000089508950C94000067
:1007B80088BFBAB1E396A07E646FF77CC98BC4A1E9
:1007C8000D0011ABDD7B5A41010000000141010021
:040000030000006891
:00000001FF
